:1000000035C053C14CC04BC04AC049C048C047C0AE
:1000100046C045C044C043C042C041C040C03FC0CC
:100020003EC03DC03CC0040309040E034700650008
:100030006500700072006F0010035500530042000D
:1000400032004C007000740012011001FF00000823
:10005000C016DC05000101020001090212000101C5
:1000600000801409040000000000000011241FBEDD
:10007000CFEDCDBF10E0A0E6B0E0E0E4F6E002C0D6
:1000800005900D92A236B107D9F710E0A2E6B0E0D4
:1000900001C01D92A439B107E1F7AED2CFC2B0CFF3
:1000A0001F93CF93DF9380917A00835087FD88C0A0
:1000B00090917700209176002D3209F07FC0883032
:1000C00009F07CC0CCE0D0E0C91BD109C258DF4F99
:1000D00083EC80936A008AE580936000109262004E
:1000E0008881807619F0CE0127D25FC09A81109264
:1000F00073008981882331F41092740023E730E083
:1001000082E04FC0853019F490937B0040C0863068
:10011000A9F58B81813019F488E490E004C0823025
:1001200041F48AE590E0909379008093780082E131
:1001300021C08330F1F4992341F486E290E090935A
:1001400079008093780084E015C0913041F48AE210
:1001500090E090937900809378008EE00BC092300D
:1001600041F488E390E0909379008093780080E1F7
:1001700001C080E090E49093620017C0883059F08D
:10018000893019F490937D0002C08A3039F023E75A
:1001900030E080E006C02DE730E002C023E730E029
:1001A00081E030937900209378009F81992321F496
:1001B0009E81981708F4892F8093610010927A002D
:1001C0008091600084FF43C0809161008F3F09F4FB
:1001D0003EC0182F893008F018E0811B8093610021
:1001E00080916A0098E8892780936A00112319F1A9
:1001F00080917800909179002091620026FF0AC0DA
:10020000FC01212FABE6B0E034913D9331962150B3
:10021000D9F708C0DC01212FEBE6F0E03D913193E6
:100220002150E1F70196212F2150820F911D9093CB
:100230007900809378008BE690E0612F32D01C5FCC
:100240001C3019F08FEF809361001093600084E1FF
:1002500090B39C7031F48150D9F710927B001092CA
:100260007500DF91CF911F91089585B7826085BF9A
:100270008BB780648BBF0895A82FB92F80E090E0E2
:1002800041E050EA609530E009C02D9182279795B2
:10029000879510F084279527305EC8F36F5FA8F329
:1002A0000895EADF8D939D930895CF93CFB7CF93B1
:1002B000C395839BE9F7839B09C0839B07C0839BFE
:1002C00005C0839B03C0839B01C0A1C0DF93C09185
:1002D0007700DD27C258DF4F839B02C0DF91EBCF51
:1002E0002F930F931F9300B32FEF03FB20F94F932E
:1002F0003F9310B34FEF012703FB21F93BE031C0DF
:100300004E7F012F10B3216028C0102F4D7F226037
:10031000000000B329C04B7F2460012F000010B300
:100320002BC010B3477F28602AC04F7E00B32061E6
:100330002CC04F7D10B320622FC04F7B00B32064D0
:1003400032C0422700B349934FEF0000102713FB40
:1003500020F910B31C70C9F1297F91F2012703FB2A
:1003600021F900B3237F89F2315058F1102713FB94
:1003700022F910B3277E79F2012703FB23F92F7CA2
:1003800081F200B3102713FB24F92F7971F200C01A
:1003900010B3012703FB25F92F7359F200C000B3F6
:1003A000102713FB26F9223040F200C010B30127BA
:1003B00003FB27F9243028F64F77206810B300009C
:1003C000F9CF10E41ABF002717C03B503195C31B6B
:1003D000D04010E41ABF0881033CE9F00B34D9F097
:1003E000209175001981110F1213EDCF093641F1DB
:1003F0000D3211F0013E39F700937C003F914F918F
:100400001F910F912F91DF91CAB7C6FD51CFCF91A8
:10041000CFBFCF91189520917C00222379F31091C2
:100420007A00112311F5343012F130937A002093C1
:100430007600109177003BE0311B3093770017C0B6
:1004400000917A0001308CF40AE53091600034FDAF
:1004500010C000936000CAE6D0E00FC02795A8F452
:100460005150A9F4220F0000F9CF4AE503C042ED34
:1004700001C0432FC4E1D0E032E011B31C60939A75
:1004800011BB02B320E41CE05F93012756E002BBDE
:10049000279520F4515021F4220FF9CF012756E07F
:1004A00000003B5A02BBD0F2279528F4515029F4A2
:1004B000220F0000F9CF012756E0279502BB20F458
:1004C000515021F4220FF9CF012756E0299133230F
:1004D00002BB21F6037F10917B00110FC651D04063
:1004E00002BB11F01093750010E41ABF086011B33D
:1004F000137F402F437F5F9100C000C002BB11BB40
:1005000042BB7CCF982F9F7398BB906898BB660FB7
:10051000660F8295869586958370682B68BB862FBB
:10052000806488BB68BB089580B3982F9695969594
:100530009C738370892B0895FC018181823039F18D
:10054000833030F4882351F0813009F053C01AC051
:10055000833041F1843009F04DC03FC082818093E7
:10056000630083818093640084818093650085812A
:100570008093660083E690E0909379008093780002
:1005800084E0089584816581BDDF80E00895CCDF3B
:100590008093630083E690E09093790080937800E5
:1005A00081E0089587E48093630085E6809364008A
:1005B0008093650080E78093660082E78093670000
:1005C0008FE6809368001092690083E690E0909334
:1005D00079008093780087E0089581E0809363003C
:1005E0001092640083E690E0909379008093780005
:1005F00082E0089580E008958FEF87BB11BA83EF02
:1006000082BB2EE088E190E00FB6F894A89581BDFA
:100610000FBE21BD2ADE8B9A80E007C0A895E7EBCC
:10062000FBE03197F1F700C000008150B9F78B98DB
:1006300060E068DF7894A89533DDFDCFF894FFCFB4
:020640005AFF5F
:00000001FF
